{
  "contractName": "AccessControlled",
  "abi": [
    {
      "constant": true,
      "inputs": [],
      "name": "isVoting",
      "outputs": [
        {
          "name": "",
          "type": "bool"
        }
      ],
      "payable": false,
      "stateMutability": "view",
      "type": "function"
    },
    {
      "inputs": [],
      "payable": false,
      "stateMutability": "nonpayable",
      "type": "constructor"
    }
  ],
  "bytecode": "0x6080604052348015600f57600080fd5b5060008060006101000a81548160ff0219169083151502179055506094806100386000396000f3fe6080604052348015600f57600080fd5b506004361060285760003560e01c80631bbef39914602d575b600080fd5b6033604d565b604051808215151515815260200191505060405180910390f35b6000809054906101000a900460ff168156fea265627a7a723058204a612ea40c279fc2f4c3528ec0596df87bb203a83010f019202e06dc7b244e5e64736f6c63430005090032",
  "source": "pragma solidity >=0.5.9;\r\n\r\ncontract AccessControlled {\r\n\r\n    bool public isVoting;\r\n\r\n    constructor() public {\r\n        isVoting = false;\r\n    }\r\n\r\n    modifier isVotingOpen() {\r\n        require(isVoting == true, \"Voting process is not open\");\r\n        _;\r\n    }\r\n\r\n    \r\n}",
  "sourcePath": "F:\\MS in CS\\Ethereum\\mytruffleproject\\contracts\\AccessControlled.sol",
  "compiler": {
    "name": "solc",
    "version": "0.5.9+commit.e560f70d.Emscripten.clang"
  },
  "schemaVersion": "3.0.23",
  "updatedAt": "2022-01-02T08:31:51.483Z",
  "devdoc": {
    "methods": {}
  },
  "userdoc": {
    "methods": {}
  }
}