{
  "contractName": "Voting",
  "abi": [
    {
      "constant": true,
      "inputs": [],
      "name": "isVoting",
      "outputs": [
        {
          "name": "",
          "type": "bool"
        }
      ],
      "payable": false,
      "stateMutability": "view",
      "type": "function"
    },
    {
      "constant": true,
      "inputs": [
        {
          "name": "",
          "type": "address"
        }
      ],
      "name": "votes",
      "outputs": [
        {
          "name": "receiver",
          "type": "address"
        },
        {
          "name": "timestamp",
          "type": "uint256"
        }
      ],
      "payable": false,
      "stateMutability": "view",
      "type": "function"
    },
    {
      "inputs": [],
      "payable": false,
      "stateMutability": "nonpayable",
      "type": "constructor"
    },
    {
      "anonymous": false,
      "inputs": [
        {
          "indexed": true,
          "name": "voter",
          "type": "address"
        },
        {
          "indexed": false,
          "name": "receiver",
          "type": "address"
        },
        {
          "indexed": false,
          "name": "timestamp",
          "type": "uint256"
        }
      ],
      "name": "AddVote",
      "type": "event"
    },
    {
      "anonymous": false,
      "inputs": [
        {
          "indexed": false,
          "name": "voter",
          "type": "address"
        }
      ],
      "name": "RemoveVote",
      "type": "event"
    },
    {
      "anonymous": false,
      "inputs": [
        {
          "indexed": false,
          "name": "startedBy",
          "type": "address"
        }
      ],
      "name": "StartVoting",
      "type": "event"
    },
    {
      "anonymous": false,
      "inputs": [
        {
          "indexed": false,
          "name": "stoppedBy",
          "type": "address"
        }
      ],
      "name": "StopVoting",
      "type": "event"
    },
    {
      "constant": false,
      "inputs": [],
      "name": "startVoting",
      "outputs": [
        {
          "name": "",
          "type": "bool"
        }
      ],
      "payable": false,
      "stateMutability": "nonpayable",
      "type": "function"
    },
    {
      "constant": false,
      "inputs": [],
      "name": "stopVoting",
      "outputs": [
        {
          "name": "",
          "type": "bool"
        }
      ],
      "payable": false,
      "stateMutability": "nonpayable",
      "type": "function"
    },
    {
      "constant": false,
      "inputs": [
        {
          "name": "receiver",
          "type": "address"
        }
      ],
      "name": "addVote",
      "outputs": [
        {
          "name": "",
          "type": "bool"
        }
      ],
      "payable": false,
      "stateMutability": "nonpayable",
      "type": "function"
    },
    {
      "constant": false,
      "inputs": [],
      "name": "removeVote",
      "outputs": [
        {
          "name": "",
          "type": "bool"
        }
      ],
      "payable": false,
      "stateMutability": "nonpayable",
      "type": "function"
    },
    {
      "constant": true,
      "inputs": [
        {
          "name": "voterAddress",
          "type": "address"
        }
      ],
      "name": "getVote",
      "outputs": [
        {
          "name": "candidateAddress",
          "type": "address"
        }
      ],
      "payable": false,
      "stateMutability": "view",
      "type": "function"
    }
  ],
  "bytecode": "0x608060405234801561001057600080fd5b5060008060006101000a81548160ff0219169083151502179055506109b88061003a6000396000f3fe608060405234801561001057600080fd5b506004361061007d5760003560e01c80636cea0e461161005b5780636cea0e46146100e85780638d337b8114610144578063d8bff5a5146101c8578063fab2f86b146102535761007d565b80631bbef399146100825780631ec6b60a146100a457806349aa4ee2146100c6575b600080fd5b61008a610275565b604051808215151515815260200191505060405180910390f35b6100ac610287565b604051808215151515815260200191505060405180910390f35b6100ce61030d565b604051808215151515815260200191505060405180910390f35b61012a600480360360208110156100fe57600080fd5b81019080803573ffffffffffffffffffffffffffffffffffffffff1690602001909291905050506104a1565b604051808215151515815260200191505060405180910390f35b6101866004803603602081101561015a57600080fd5b81019080803573ffffffffffffffffffffffffffffffffffffffff1690602001909291905050506107c5565b604051808273ffffffffffffffffffffffffffffffffffffffff1673ffffffffffffffffffffffffffffffffffffffff16815260200191505060405180910390f35b61020a600480360360208110156101de57600080fd5b81019080803573ffffffffffffffffffffffffffffffffffffffff169060200190929190505050610831565b604051808373ffffffffffffffffffffffffffffffffffffffff1673ffffffffffffffffffffffffffffffffffffffff1681526020018281526020019250505060405180910390f35b61025b610875565b604051808215151515815260200191505060405180910390f35b6000809054906101000a900460ff1681565b600060016000806101000a81548160ff0219169083151502179055507f84d66542381393079134898f2436f7ba19b5fab5b4ae13da6b78e7454395661d33604051808273ffffffffffffffffffffffffffffffffffffffff1673ffffffffffffffffffffffffffffffffffffffff16815260200191505060405180910390a16001905090565b600080600160003373ffffffffffffffffffffffffffffffffffffffff1673ffffffffffffffffffffffffffffffffffffffff16815260200190815260200160002060010154116103c6576040517f08c379a000000000000000000000000000000000000000000000000000000000815260040180806020018281038252601d8152602001807f5468697320706572736f6e20686173206e6f7420766f7465642079657400000081525060200191505060405180910390fd5b600160003373ffffffffffffffffffffffffffffffffffffffff1673ffffffffffffffffffffffffffffffffffffffff168152602001908152602001600020600080820160006101000a81549073ffffffffffffffffffffffffffffffffffffffff0219169055600182016000905550507fd835495b0cc14603f691a3161f6442cbe3602e0745f2c60b948d0d3268e6c6c733604051808273ffffffffffffffffffffffffffffffffffffffff1673ffffffffffffffffffffffffffffffffffffffff16815260200191505060405180910390a16001905090565b6000600115156000809054906101000a900460ff1615151461052b576040517f08c379a000000000000000000000000000000000000000000000000000000000815260040180806020018281038252601a8152602001807f566f74696e672070726f63657373206973206e6f74206f70656e00000000000081525060200191505060405180910390fd5b600073ffffffffffffffffffffffffffffffffffffffff168273ffffffffffffffffffffffffffffffffffffffff1614156105ce576040517f08c379a00000000000000000000000000000000000000000000000000000000081526004018080602001828103825260158152602001807f57726f6e6720696e70757420706172616d65746572000000000000000000000081525060200191505060405180910390fd5b81600160003373ffffffffffffffffffffffffffffffffffffffff1673ffffffffffffffffffffffffffffffffffffffff16815260200190815260200160002060000160006101000a81548173ffffffffffffffffffffffffffffffffffffffff021916908373ffffffffffffffffffffffffffffffffffffffff16021790555042600160003373ffffffffffffffffffffffffffffffffffffffff1673ffffffffffffffffffffffffffffffffffffffff168152602001908152602001600020600101819055503373ffffffffffffffffffffffffffffffffffffffff167f80eacb8485891d1331e1057618388e157b8496244c3b2eab9302445007b46811600160003373ffffffffffffffffffffffffffffffffffffffff1673ffffffffffffffffffffffffffffffffffffffff16815260200190815260200160002060000160009054906101000a900473ffffffffffffffffffffffffffffffffffffffff16600160003373ffffffffffffffffffffffffffffffffffffffff1673ffffffffffffffffffffffffffffffffffffffff16815260200190815260200160002060010154604051808373ffffffffffffffffffffffffffffffffffffffff1673ffffffffffffffffffffffffffffffffffffffff1681526020018281526020019250505060405180910390a260019050919050565b6000600160008373ffffffffffffffffffffffffffffffffffffffff1673ffffffffffffffffffffffffffffffffffffffff16815260200190815260200160002060000160009054906101000a900473ffffffffffffffffffffffffffffffffffffffff169050919050565b60016020528060005260406000206000915090508060000160009054906101000a900473ffffffffffffffffffffffffffffffffffffffff16908060010154905082565b6000600115156000809054906101000a900460ff161515146108ff576040517f08c379a000000000000000000000000000000000000000000000000000000000815260040180806020018281038252601a8152602001807f566f74696e672070726f63657373206973206e6f74206f70656e00000000000081525060200191505060405180910390fd5b60008060006101000a81548160ff0219169083151502179055507fd027f2ec970e91ce28ac9b4d8c78f89288e3b6029357e79cbd81578f250aa4a133604051808273ffffffffffffffffffffffffffffffffffffffff1673ffffffffffffffffffffffffffffffffffffffff16815260200191505060405180910390a1600190509056fea265627a7a72305820d419927486e687e8a3a2823cfaa002562c9815daccf2a5864803bed99c388a3364736f6c63430005090032",
  "source": "pragma solidity >=0.5.9;\r\n\r\nimport \"./AccessControlled.sol\";\r\n\r\ncontract Voting is AccessControlled{\r\n\r\n\t// Vote Struct. It defines a custom type to be used to store values for every vote received.\r\n\tstruct Vote {\r\n\t\taddress receiver;\r\n\t\tuint256 timestamp;\r\n\t}\r\n\r\n\t// The main votes state variable of the type 'mapping'. This will be like a hash-map of all votes collected from each voter.\r\n\tmapping(address => Vote) public votes;\r\n\r\n\t// Define events we wish to emit\r\n\tevent AddVote(address indexed voter, address receiver, uint256 timestamp);\r\n\tevent RemoveVote(address voter);\r\n\tevent StartVoting(address startedBy);\r\n\tevent StopVoting(address stoppedBy);\r\n\r\n\t// Main constructor of the contract. It sets the owner of the contract and the voting status flag to false.\r\n\tconstructor() public {\r\n\t}\r\n\r\n\tfunction startVoting() external returns(bool) {\r\n\t\tisVoting = true;\r\n\t\temit StartVoting(msg.sender);\r\n\t\treturn true;\r\n\t}\r\n\r\n\tfunction stopVoting() external isVotingOpen returns(bool) {\r\n\t\tisVoting = false;\r\n\t\temit StopVoting(msg.sender);\r\n\t\treturn true;\r\n\t}\r\n\r\n\tfunction addVote(address receiver) external isVotingOpen returns(bool) {\r\n\t\trequire(receiver != address(0), \"Wrong input parameter\");\r\n\t\t// Set values for the Vote struct\r\n\t\tvotes[msg.sender].receiver = receiver;\r\n\t\tvotes[msg.sender].timestamp = block.timestamp;\r\n\r\n\t\temit AddVote(msg.sender, votes[msg.sender].receiver, votes[msg.sender].timestamp);\r\n\t\treturn true;\r\n\t}\r\n\r\n\tfunction removeVote() external returns(bool) {\r\n\t\trequire(votes[msg.sender].timestamp > 0, \"This person has not voted yet\");\r\n\r\n\t\tdelete votes[msg.sender];\r\n\r\n\t\temit RemoveVote(msg.sender);\r\n\t\treturn true;\r\n\t}\r\n\r\n\tfunction getVote(address voterAddress) external view returns(address candidateAddress) {\r\n\t\treturn votes[voterAddress].receiver;\r\n\t}\r\n}",
  "sourcePath": "F:\\MS in CS\\Ethereum\\mytruffleproject\\contracts\\Voting.sol",
  "compiler": {
    "name": "solc",
    "version": "0.5.9+commit.e560f70d.Emscripten.clang"
  },
  "schemaVersion": "3.0.23",
  "updatedAt": "2022-01-02T08:32:02.223Z",
  "networkType": "ethereum",
  "devdoc": {
    "methods": {}
  },
  "userdoc": {
    "methods": {}
  }
}